:100000000C94BA020C94E2020C94E2020C94E20208
:100010000C94E2020C94E2020C94E2020C94E202D0
:100020000C94E2020C94E2020C949F290C94352863
:100030000C94E2020C94E2020C94E2020C94E202B0
:100040000C94E2020C94E2020C94E2020C94E202A0
:100050000C94E2020C94E2020C94E2020C94BB2297
:100060000C94E2020C94E2020C94E2020C94E20280
:100070000C94E2020C94E2020C94E2020C94E20270
:100080000C94E2020C94E2020C94E2020C94E20260
:100090000C94570B0C94E2020C94E2020C94E202D2
:1000A0000C94E2020C94E2020C94E202FB15FF15A0
:1000B00008160D16121618161B161E166C6F6361A5
:1000C0006C6C79206275696C74004B6579626F6144
:1000D0007264696F204D6F64656C203031202D2073
:1000E0004B616C6569646F73636F70652000E40237
:1000F000372738000000FFFF1E001F0020002100EE
:10010000220000434A00E40001602300240025008F
:10011000260027000144350014001A0008001500CD
:1001200017002B002A002C00FFFF1C0018000C00F9
:10013000120013002E0001C0040016000700090081
:100140000A00FFFF04C04D00E6000B000D000E008A
:100150000F003300340029001D001B0006001900A9
:1001600005000BC002C028000BC0110010003600B3
:10017000370038002D00FFFFFFFFFFFFFFFFFFFFED
:10018000FFFFFFFFFFFFFFFF0060FFFF5F0060005A
:1001900061005600FFFFFFFFFFFFFFFFFFFFFFFFB4
:1001A000FFFFFFFFFFFFFFFFFFFFFFFF5C005D00A2
:1001B0005E005700FFFFFFFFFFFFFFFFFFFFFFFF96
:1001C000FFFFFFFFFFFFFFFFFFFFFFFF59005A0088
:1001D0005B002E00FFFFFFFFFFFFFFFFFFFFFFFFA2
:1001E000FFFFFFFFFFFFFFFFFFFFFFFF6200630056
:1001F000550054002800FFFF3A003B003C003D0042
:100200003E003900FFFFFFFFB6583F0040004100AD
:100210004200430044002B00FFFF0150FFFFFFFF9F
:10022000FFFF29504C00FFFFCD58B5582F0830086C
:100230002F0030004500E000045002502900FFFF6D
:10024000FFFF2A50FFFFE6006500500051005200FA
:100250004F00FFFFFFFF4D0046004900FFFFFFFF7B
:10026000FFFFFFFFFFFFFFFFFFFFE24CEA5CE95CDF
:10027000FFFF310031080000000000000000000016
:10028000000000000000000000000000000000006E
:10029000000001010101010101010101010101024F
:1002A0000202020202020203030303030303040423
:1002B00004040405050505060606060707070708E2
:1002C00008080909090A0A0A0B0B0B0C0C0D0D0D85
:1002D0000E0E0F0F10101111121213131414151506
:1002E000161617181819191A1B1B1C1D1D1E1F2066
:1002F0002021222323242526272728292A2B2C2D99
:100300002E2F303132323334363738393A3B3C3D98
:100310003E3F40424344454648494A4B4D4E4F516B
:100320005253555657595A5C5D5F60626365666803
:10033000696B6D6E7072737577787A7C7E7F81835E
:100340008587898A8C8E90929496989A9C9EA0A27A
:10035000A4A7A9ABADAFB1B4B6B8BABDBFC1C4C64E
:10036000C8CBCDD0D2D5D7DADCDFE1E4E7E9ECEFDA
:10037000F1F4F7F9FCFF05010906A101050719E0F1
:1003800029E7150025017501950881029501750879
:10039000810195057501050819012905910295014D
:1003A0007503910195067508150025FF05071900CD
:1003B00029FF8100C0050C0901A101850415002653
:1003C000FF0319002AFF03950475108100C0050181
:1003D0000906A1018508050719E029E7150025018F
:1003E000750195088102050819012908950875010C
:1003F00091020507750495018101190429DD150095
:100400002501750195D98102750395018101C0050A
:10041000010902A101850105091901290815002515
:100420000195087501810205010930093109381566
:1004300081257F750895038106050C0A3802158110
:10044000257F750895018106C005010980A10185F8
:1004500005150026FF00190029FF95017508810088
:10046000C005010902A10105091901290815002586
:100470000195087501810205010930093116000056
:1004800026FF7F75109502810209381581257F7539
:100490000895018106C01E0834082008210822089A
:1004A000240834002608270825082E0836002D00C9
:1004B0003700380027003308330036082E0037088D
:1004C00038081F082F003100300023082D083500A0
:1004D0002F083108300835082E00080B00020202F0
:1004E00001000904000001020200000524001001BF
:1004F0000524010101042402060524060001070564
:10050000810310004009040100020A0000000705F1
:1005100002024000000705830240000012010002B1
:10052000EF020140091201230001010203014B65A2
:1005300079626F617264696F004D6F64656C203021
:10054000310004030904D2061809320EA30E8D0FE0
:100550006910251170142B17C418D618681A151BAA
:100560004D1CDA1C6A1D961DEC209E21A9219722A4
:10057000BD24220911241FBECFEFDAE0DEBFCDBFBC
:1005800012E0A0E0B1E0E4E8F5E502C005900D92CC
:10059000A434B107D9F727E0A4E4B2E001C01D926A
:1005A000A735B207E1F712E0C9EBD2E004C021970A
:1005B000FE010E949B2AC33AD107C9F70E94512A23
:1005C0000C94B52A0C94000088E896E00C94711DF8
:1005D000882319F0813091F026C061FF24C060FDAE
:1005E00022C06AEC70E08DE196E00E9479166CEB17
:1005F00070E08DE196E00E94791615C061FF13C08E
:1006000060FD0BC00E94052324E230E040E050E092
:100610000E94792A6C5F6093440280914402909119
:1006200045020E947B0980E090E00895009719F050
:10063000029759F0089581E080933C0660E070E0F5
:1006400080E00E947A170C940B1810923C0660E030
:1006500070E080E00E947A17E0913F06F0E0EE0F34
:10066000FF1FE05CF94F80819181009739F0DC0138
:10067000ED91FC910480F581E02D099408950C948E
:1006800016038AE396E00E940F1880E796E00E9426
:10069000601782E796E00E948C1982E096E00E9443
:1006A0006B1480E090E008958FE796E00E94AE1C06
:1006B00080E090E00895EF92FF920F931F93CF9305
:1006C000DF93EC01162FF42EE22E022F242F462F5B
:1006D000BC018AE396E00E944418019719F481E076
:1006E00090E021C00E2D2F2D412FBE018DE196E00F
:1006F0000E94A616019799F32F2D412FBE0182E08B
:1007000096E00E948013019751F32F2D412FBE01D7
:100710008AE896E00E94E21D31E020E0019709F0AE
:1007200030E0832F922FDF91CF911F910F91FF9097
:10073000EF9008958DE796E00E94831C8AE396E08F
:100740000E9485188DE196E00E94EF1682E096E007
:100750000E94E51282E896E00E94E51C8AE896E095
:100760000E94C91F8BEA96E00C940D2186E796E063
:100770000E94BA1A82E796E00E949A198DE196E0EB
:100780000E94EA1682E096E00E94DC128AE896E077
:100790000E94EB1F80E090E0089586E492E00E94C2
:1007A000E70381E08093750680E796E00E94F717E3
:1007B0001092240110922301EEE2F1E08FEF80838A
:1007C00081831282089586E492E00C940D04CF9305
:1007D000DF930E94410381E194E00E94DD060E94C4
:1007E00057090E94300A0E943A0A20E04FEF6FEF4B
:1007F00080E090E00E9494040E94AD05D0E0C0E04B
:100800006C2F8D2F0E945005CF5FC031C9F7DF5F7D
:10081000D430A9F7DF91CF9108950F931F93CF9311
:10082000DF930E94052360934702709348028093F0
:10083000490290934A020E94540381E194E00E948D
:1008400038080E949A03CBE4D2E08E01D801ED91E2
:10085000FD918D01309719F080E00995F7CF0E9446
:100860001E0A0E94BF09E991F991309719F081E0C1
:100870000995F9CFDF91CF911F910F910C94B60399
:10088000EBECF2E020E030E041915191481759073C
:1008900041F4220F331FF901E553FD4F718360834B
:1008A00008952F5F3F4F2034310571F70895BC0143
:1008B00080E090E00C944004EBECF2E02191319167
:1008C0002817390731F023E0EB34F207B9F70C941D
:1008D00057040895EBE4F2E020E030E041915191BB
:1008E0004817590741F4220F331FF901E55BFD4F0B
:1008F0007183608308952F5F3F4F2034310571F776
:100900000895BC0180E090E00C946A04EBE4F2E00E
:10091000219131912817390731F022E0EB3CF207A1
:10092000B9F70C9481040895AF92BF92CF92DF92F1
:10093000FF920F931F93CF93DF9300D0CDB7DEB715
:100940009A838983062FF42E122F643090F58FE05E
:10095000841778F1A22FA270BA2E21FF06C020FDC5
:1009600004C0642F802F0E9450054F2D602F81E11D
:1009700094E00E948108882351F010FF70C0B110EC
:100980006EC04F2D602F81E194E00E946108898143
:100990009A81892B71F4B0E10B9FF0011124EF0DC6
:1009A000F11DEE0FFF1FE557FC4F808191819A8367
:1009B00089838BECA82E82E0B82ED501ED91FD91B4
:1009C0005D01212F4F2D602F309759F089819A8139
:1009D00009959A838983C12CD12C8C159D0569F7C3
:1009E0003EC0CE0101960E945B03892BC1F5212FE9
:1009F0004F2D602F89819A810E9481069A83898375
:100A0000892B69F1F9800A8106FF1AC007FD27C00A
:100A100003FF07C011FF23C08F2D902F0E94340ABF
:100A20001EC000FF1CC011FD1AC010FF18C08F2D82
:100A3000902F0E943E0A8F2D902F0E94430A0FC0D4
:100A400011FF05C08F2D902F0E947B0908C010FF59
:100A500006C017FF04C08F2D902F0E94CB090F9066
:100A60000F90DF91CF911F910F91FF90DF90CF906A
:100A7000BF90AF90089570E0FB0194E0899FE00D76
:100A8000F11D112484E0EE0FFF1F8A95E1F7E40FBA
:100A9000F11DEE0FFF1FEA50FF4F859194910895CD
:100AA000CF93DF93462F90E1899F90011124260F69
:100AB000311DE901CC0FDD1FC557DC4FD901A55B06
:100AC000BC4FE0910101F0910201682F8C910995D2
:100AD00099838883DF91CF9108950F931F9380911D
:100AE000000181509091100440910C0450910D042C
:100AF00060910E0470910F04981788F48A019B018D
:100B0000082E04C036952795179507950A94D2F7B5
:100B100000FF03C080930B0404C08150EDCF90937D
:100B20000B041F910F9108950F931F9340910C0494
:100B300050910D0460910E0470910F048A019B0185
:100B400004C036952795179507958A95D2F7D90150
:100B5000C80181701F910F910895DF92EF92FF926B
:100B60000F931F93CF93DF936091100470E040E4E4
:100B700050E08BE493E00E94AE2A8BE4E82E83E001
:100B8000F82ED0E000E010E0D02EC0910B04809150
:100B9000100490E02C2F0C2E000C330B82179307BF
:100BA000B4F48C2F0E949405882379F0E091010120
:100BB000F09102014D2D6D2F8C2F0995019629F092
:100BC000F701E00FF11FC08302C0C150E0CF0F5FFB
:100BD0001F4F00311105C1F6DF5F80E1E80EF11C07
:100BE000D43081F6DF91CF911F910F91FF90EF905C
:100BF000DF9008950F931F9300910C0410910D0442
:100C000020910E0430910F04B901A801082E04C0F0
:100C100076956795579547950A94D2F740FF26C079
:100C200041E050E060E070E0082E04C0440F551F22
:100C3000661F771F0A94D2F740955095609570957E
:100C4000402351236223732340930C0450930D04DB
:100C500060930E0470930F0490910B04891302C0EB
:100C60000E946D051F910F910C94AD051F910F917E
:100C70000895CF9390910001891770F5C82F0E94B5
:100C80009405811129C081E090E0A0E0B0E00C2E35
:100C900004C0880F991FAA1FBB1F0A94D2F7409166
:100CA0000C0450910D0460910E0470910F04842B7C
:100CB000952BA62BB72B80930C0490930D04A09337
:100CC0000E04B0930F0480910B048C1710F40E9453
:100CD0006D05CF910C94AD05CF91089510920C0441
:100CE00010920D0410920E0410920F040C94390609
:100CF00080910B048F5F0C94390680910B040C9447
:100D0000FA05CF93943409F043C0C82F822F827024
:100D1000CA3248F1CA52C13289F0C232C9F42170D4
:100D2000882329F0211103C00E9478062AC02223BB
:100D300041F1811126C00E947D0623C021708823C5
:100D400011F02223C1F32223E1F081111AC0ECCF6C
:100D5000882331F08C2F0E949405811112C014C099
:100D600020FD0CC00EC0882361F020FD0AC08C2F2E
:100D70000E949405882341F0CC2331F08C2F0E94EF
:100D8000FA0580E090E004C08C2F0E943906F9CF6C
:100D9000CF910895CF93C82F0E946E06C093100480
:100DA000CF91089580E00C94CA063F9A479A08951F
:100DB0006E9A769824982C980895CF93DF93EC013F
:100DC0000FB6F894A89580916000886180936000C8
:100DD000109260000FBE64E670E080E090E00E9438
:100DE0003623CE010E94D506CE010E94D806188275
:100DF00019821A821B821C821D821E821F828CE035
:100E00008093B800DF91CF910895603250F470E084
:100E1000FB01EE0FFF1F6E0F7F1FFB01EE56FB4F16
:100E20000CC0603470F470E060527109FB01EE0F89
:100E3000FF1FE60FF71FE75DFB4F60817181828125
:100E4000089560E070E080E008950F931F93CF93C2
:100E5000DF93C62F8901D42F6032D8F40E94050792
:100E600090910301D81307C081E0171305C0061342
:100E700003C080E001C081E0892B809303016C2FC7
:100E800070E0FB01EE0FFF1FE60FF71FEE56FB4F62
:100E90001DC06034F0F40E94050790910301D8133F
:100EA00007C081E0171305C0061303C080E001C02E
:100EB00081E0892B80930301EC2FF0E0B097CF0104
:100EC000880F991FE80FF91FE75DFB4F008311831F
:100ED000D283DF91CF911F910F9108950F931F93AC
:100EE000542F422F980170E1679FF0011124E50F04
:100EF000F11DEB5BFE4F60811F910F910C94250754
:100F000080910301882311F182E994E00E949A0CF8
:100F100089E294E00E949A0C82E994E00E949A0C83
:100F200089E294E00E949A0C82E994E00E949A0C73
:100F300089E294E00E949A0C82E994E00E949A0C63
:100F400089E294E00E949A0C109203010895CF93D5
:100F5000DF93EC0188819981AA81BB818887998779
:100F6000AA87BB878C819D81AE81BF818C879D873D
:100F7000AE87BF8782E994E00E94230C882341F06A
:100F800082E994E00E94560C688379838A839B836C
:100F900089E294E00E94230C882341F089E294E0E6
:100FA0000E94560C6C837D838E839F83DF91CF914B
:100FB0000895DF92EF92FF920F931F93CF93DF93E9
:100FC000082FC62FD42FD22E641303C06623D9F066
:100FD000DC2F10E005C0C695D6951F5F183099F03C
:100FE000C0FBEE24E0F8F12CA701440F551F2D2F74
:100FF0002170242B81F34D2D411B602F80E090E068
:101000000E949404E8CFDF91CF911F910F91FF9040
:10101000EF90DF900895CF92DF92EF92FF920F93BF
:101020001F93CF937C018C01045F1F4FC0E06801C8
:10103000D7016D917D01F801349727E040818C2F15
:101040000E94D9070F5F1F4FF80139972FE0D60193
:101050004C9160818C2F0E94D907CF5FC43039F743
:10106000CF911F910F91FF90EF90DF90CF90089557
:10107000CF93DF93EC010E94A707CE01DF91CF91C0
:101080000C940B086430E0F44031D0F4E62FF0E02B
:10109000842F90E0483028F0EF5DFB4F2FE030E0E8
:1010A00004C0EB5DFB4F27E030E0281B390B81E0EB
:1010B00090E001C0880F2A95EAF79081892B808300
:1010C00008956430E8F44031D8F4E62FF0E0842F3E
:1010D00090E0483028F0EF5DFB4F2FE030E004C097
:1010E000EB5DFB4F27E030E0281B390B81E090E0FF
:1010F00001C0880F2A95EAF7809590818923808323
:1011000008956430F0F44031E0F470E0E42FF0E052
:10111000DB01483038F0AF5DBB4F8C9190E02FE0A1
:1011200030E006C0AB5DBB4F8C9190E027E030E033
:101130002E1B3F0B02C0959587952A95E2F781708B
:10114000089580E00895CF93C62F82E994E00E942D
:10115000080C6C2F89E294E0CF910C94080CE0EE1F
:10116000F0E08081816080830895E0EEF0E080818E
:101170008E7F8083089570E0E42FF0E0DC01A60FFD
:10118000B71F483028F48C9190E027E030E005C08C
:1011900014968C9190E02FE030E02E1B3F0B02C0A4
:1011A000959587952A95E2F7817008956150462FAD
:1011B0004F7062956F700C94BB088F929F92AF92A4
:1011C000BF92CF92DF92EF92FF92FC01C080D1805C
:1011D000E280F38084809580A680B78020E030E0B4
:1011E00080E0B501A401022E04C07695679557955D
:1011F00047950A94D2F7942F9170B701A601022E59
:1012000004C076956795579547950A94D2F7417033
:10121000490F840F2F5F3F4F2032310511F7FF90A8
:10122000EF90DF90CF90BF90AF909F908F900895F8
:1012300060E082E994E00E94F00B63E089E294E0D0
:101240000C94F00B89E294E00E94EF0B82E994E0A9
:101250000C94EF0BCF93DF9300D000D000D0CDB72C
:10126000DEB7DC0113967C936E93129715965C9310
:101270004E93149716963C91169739837B836A8315
:101280005D834C832E83ED91FC910190F081E02DE4
:1012900046E050E0BE016F5F7F4F099526960FB67E
:1012A000F894DEBF0FBECDBFDF91CF91089585E6E4
:1012B00095E00E94830F82E295E00C94130ECF9389
:1012C000DF931F92CDB7DEB7682F82E295E0698386
:1012D0000E947C0D6981811107C082E295E00F9028
:1012E000DF91CF910C94B00D85E695E00F90DF91E2
:1012F000CF910C942D0FCF93DF93D82FC92F93FF4D
:1013000004C081EE90E00E945F09C0FF04C080EE3F
:1013100090E00E945F09C1FF04C082EE90E00E944D
:101320005F09C2FF04C086EE90E00E945F09C4FF1F
:1013300004C083EE90E00E945F098D2F9C2FDF9107
:10134000CF910C945F09CF93DF931F92CDB7DEB797
:10135000682F82E295E069830E947C0D698181118A
:1013600007C082E295E00F90DF91CF910C94D80DE9
:1013700085E695E00F90DF91CF910C94540F82E2B7
:1013800095E00E940C0E85E695E00E947D0F87E4B3
:1013900095E00C94680ECF93DF93D82FC92F93FF5D
:1013A00004C081EE90E00E94A309C0FF04C080EE5B
:1013B00090E00E94A309C1FF04C082EE90E00E9469
:1013C000A309C2FF04C086EE90E00E94A309C4FFF7
:1013D00004C083EE90E00E94A3098D2F9C2FDF9123
:1013E000CF910C94A309CF93DF931F92CDB7DEB7B3
:1013F000682F82E295E069830E947C0D69818111EA
:1014000007C082E295E00F90DF91CF910C94230EFC
:1014100085E695E00F90DF91CF910C941E0F82E24C
:1014200095E00E947C0D811104C082E295E00C944D
:10143000790D0E947912FC018289089582E295E07B
:101440000E947C0D811104C082E295E00C94820D13
:1014500085E695E00E94D10E87E495E00C947B0E22
:1014600087E495E00C94A10EBC01737087E495E0CD
:101470000C94530E8AEC95E00C944D10682F8AEC76
:1014800095E00C9451108AEC95E00C944F1082EB8F
:1014900095E00C94E90F0F93022F242F462F682F0D
:1014A00082EB95E00E94910F0F9108950F93522FB8
:1014B0009091B3053091B4052091B5050091B60522
:1014C000811190E0611130E0411120E0511100E004
:1014D000432F692F82EB95E00E94910F0F910895A1
:1014E000682F82EB95E00C949F0F682F82EB95E0BC
:1014F0000C94A40F82EB95E00C94990F82EB95E08D
:101500000C94B70FE3EDF5E0108A468557856485A6
:10151000758520E08DED95E00C942A09242FAB0110
:10152000BC018DED95E00C942A091092210581E013
:1015300080931F0510921E05589A599AE9EBF0E026
:1015400080818E7F808380818D7F808388E48093FB
:10155000B80085E48093BC000895413208F043C090
:10156000909121059111FCCF91E09093210520935A
:101570001F052FEF2093FB041092FD04240F2093EE
:10158000FC049093200590912005880F892B80936F
:10159000200580911E05813061F410921E05809116
:1015A00020058093BB008091BC0083FDF8CF85ECC3
:1015B00001C085EE8093BC00809121058130E1F36C
:1015C0008091FD04841710F44091FD042EEF34E067
:1015D000FB01D9018A2F821B841718F48D91819306
:1015E000F9CF842F089580E008950F93413208F0D9
:1015F0004AC0909121059111FCCF32E03093210532
:1016000000931F053FEF3093FB041092FD044093BD
:10161000FC04FB016EEF74E0DB013A2F361B34173C
:1016200018F431913D93F9CF1092200530912005A7
:10163000880F832B8093200580911E05813061F4F3
:1016400010921E05809120058093BB008091BC0004
:1016500083FDF8CF85EC01C085EE8093BC0022238A
:1016600021F0809121058230D1F38091FB048033F9
:1016700031F08F3F49F0803221F492E005C093E0D1
:1016800003C094E001C091E0892F0F91089585ED8A
:101690008093BC008091BC0084FDFCCF109221059A
:1016A000089585EC8093BC001092210508951F9247
:1016B0000F920FB60F9211242F933F934F935F9386
:1016C0006F937F938F939F93AF93BF93EF93FF930A
:1016D0008091B900887F883239F170F4803109F146
:1016E00030F4882309F466C08830D9F067C08831A7
:1016F000D9F0803279F162C08034D9F150F480336E
:1017000049F1883309F05AC08093FB040E94510BC1
:1017100055C0803511F18835A1F1883409F04EC0EB
:101720004BC08091200510C09091FD048091FC0475
:10173000981798F5E091FD0481E08E0F8093FD04E9
:10174000F0E0E250FB4F80818093BB0085EC8093FA
:10175000BC0034C08093FB042FC0E091FD0481E005
:101760008E0F8093FD048091BB00F0E0E250FB4FB0
:1017700080839091FD048091FC04981738F385E8EC
:10178000E6CFE091FD0481E08E0F8093FD0480910F
:10179000BB00F0E0E250FB4F808380911F05811178
:1017A0000BC081E080931E0584EA8093BC001092F8
:1017B000210504C01092FB040E94470BFF91EF919A
:1017C000BF91AF919F918F917F916F915F914F9159
:1017D0003F912F910F900FBE0F901F901895089575
:1017E000FC01E859FF4F10823697262F30E03183F5
:1017F00020833297686570E0718360838091040173
:101800009FEF980F9093040181110C94950A08950D
:101810000F93CF93DF9300D0CDB7DEB722E02983BB
:101820006A83FC01E05AFF4F00E021E042E0BE0184
:101830006F5F7F4F80810E94F50A0F900F90DF91BC
:10184000CF910F9108950F931F93CF93DF9300D003
:1018500000D01F92CDB7DEB78C01FC01E05AFF4FDC
:1018600021E045E0BE016F5F7F4F80810E94AD0A9D
:101870008981813081F4F801EC59FF4F8A8180839E
:1018800031968B81808331968C81808331968D81D6
:10189000808381E001C080E00F900F900F900F9047
:1018A0000F90DF91CF911F910F910895FC01EC599A
:1018B000FF4F608171818281938108950F93CF934F
:1018C000DF93CDB7DEB769970FB6F894DEBF0FBED2
:1018D000CDBF20E8260F2983DE01129628E1629F02
:1018E000B001112420E030E0F901E60FF71FE80F06
:1018F000F91FE081F0E0EA58FD4FE491ED932F5F8E
:101900003F4F2831310581F7FC01E05AFF4F00E0DD
:1019100021E049E1BE016F5F7F4F80810E94F50A9F
:1019200069960FB6F894DEBF0FBECDBFDF91CF91A1
:101930000F910895CF93DF93EC01C859DF4F688171
:1019400021E0260F28830E945E0C8881843009F4F0
:101950001882DF91CF910895FC0182818F5BFB019A
:10196000808381E00895CF93DF93CDB7DEB7699789
:101970000FB6F894DEBF0FBECDBFFC01DB019C911A
:101980009F5F9C93BE016F5F7F4F89E1DB011D92DA
:101990008A95E9F729E0298384E08A8391E09D8391
:1019A00083E08E839F8398872A8721E22B879C87F9
:1019B0009D879F8722E2288B2FE3298B27E02B8BA3
:1019C00025E02C8B8E8B20E430E0388F2F8B998F85
:1019D00082818B83838180688D8B49E150E080E038
:1019E0000E94E32769960FB6F894DEBF0FBECDBF05
:1019F000DF91CF910895FC01DB018C918138B9F41E
:101A000013968C911397823291F4828190E0149610
:101A10002D913C9115972817390749F48285848FB9
:101A20004FE350E066E773E080E80C94E32780E042
:101A300090E00895FC01DB01828190E014962D91E5
:101A40003C91159782179307E1F511968C911197A8
:101A50009C91913A61F4813091F1833011F4848D3D
:101A600003C0823071F5858D8093F10028C09132DA
:101A700041F58B3021F412968C91848F20C08A30EE
:101A800011F4158E1CC08930E1F4CF0116962D910A
:101A90003C91179713964C91423039F4213031051F
:101AA00081F461E070E04E9608C0413051F4283076
:101AB000310539F468E070E00B960E940A2881E055
:101AC000089580E00895FC0181E0848385839F016F
:101AD000255E3F4F378326831186108629E831E043
:101AE000318320838287848F858F168E81EC838F4C
:101AF0000895FC01868D0895FC01848D0895FC01F4
:101B0000648F0895EF92FF920F931F93CF93DF930B
:101B10008C01EC012B967C0183E1E80EF11C48E07E
:101B200050E0BE01C7010E94A12A892B81F0F80173
:101B3000838148E050E0BE0180640E94332728E0A2
:101B4000FE01D70101900D922A95E1F702C08FEFB7
:101B50009FEFDF91CF911F910F91FF90EF9008952C
:101B600020E2260F283058F441E050E001C0440F35
:101B70002A95EAF7FC012385422B438716C0FC0116
:101B80003D9620E030E04191461779F0411105C0C3
:101B9000FC01E20FF31F658708C02F5F3F4F26301F
:101BA000310589F780E090E0089581E090E00895A4
:101BB00020E2260F283068F4622F21E030E001C0D7
:101BC000220F6A95EAF72095FC01338523232387AA
:101BD00020C0FC013D96AC014D5E5F4FDF012C91B2
:101BE000261301C01C921196A417B507C1F720E077
:101BF0003081332351F0DC01A20FB11D1D966C9191
:101C00001D971D963C9360832F5F3196E417F5076F
:101C100079F781E090E008950B9628E0FC0111929D
:101C20002A95E9F70895CF93DF93EC010E949E2552
:101C3000BE010E945725CE010E940C0ECE01DF91FD
:101C4000CF910C94820D605E683050F4FC01838566
:101C500090E002C0959587956A95E2F781700895A6
:101C600080E0089582E295E00C94630D8091570521
:101C7000811113C0109242051092410585EB93E04B
:101C8000909344058093430589E190E09093460545
:101C90008093450581E0809357050E94791261E4A5
:101CA00075E00C940612DC0120E030E04D915D916E
:101CB000452B41F4220F331FFC01E20FF31F718308
:101CC000608308952F5F3F4F2430310579F70895E1
:101CD00028E0FC0111922A95E9F70895CF93DF934C
:101CE000EC010E94791228E030E0AE0164E0DF915F
:101CF000CF910C9423120F931F93CF93DF93EC019A
:101D00008C01085F1F4F48E050E0BC01C8010E94F1
:101D1000A12A892B51F0CE010E946E0E98E0FE019F
:101D2000D80101900D929A95E1F7DF91CF911F9123
:101D30000F91089528E0FC0111922A95E9F70C947F
:101D40007B0E0C949A0E87E495E00C94360E8091ED
:101D50009F05811113C01092600510925F058EECF3
:101D600093E0909362058093610581E490E0909305
:101D700064058093630581E080939F050E9479123A
:101D80006FE575E00C940612CF93DF93EC010E948F
:101D900079122DE130E0AE0168E0DF91CF910C9433
:101DA0002312EF92FF920F931F93CF93DF93EC01D7
:101DB0000D8D1881802F809581239E01235E3F4FDA
:101DC0007901882359F01D8F0E9479122DE130E0AE
:101DD000A70168E00E9423120D8F0EC0812F80950D
:101DE000802351F008830E9479122DE130E0AE018A
:101DF00068E00E94231218834DE150E0BE01C70144
:101E00000E94A12A892B79F0CE010E94C40E9C0168
:101E1000181619065CF48DE1FE01D70101900D92B0
:101E20008A95E1F703C08FEF9FEF01C0C901DF91F1
:101E3000CF911F910F91FF90EF900895605E6830F1
:101E400050F4FC01808190E002C0959587956A95D9
:101E5000E2F78170089580E008956E3D90F4262F9A
:101E6000269526952695FC01E20FF11D677081E00D
:101E700090E001C0880F6A95EAF79181892B8183F0
:101E80000DC0605E683068F421E030E001C0220FD0
:101E90006A95EAF7FC013081232B208381E090E0F2
:101EA000089580E090E008956E3D98F4262F2695E1
:101EB00026952695FC01E20FF11D677081E090E008
:101EC00001C0880F6A95EAF7809591818923818303
:101ED0000EC0605E683070F421E030E001C0220F77
:101EE0006A95EAF72095FC0130812323208381E065
:101EF00090E0089580E090E008952DE1FC011192BA
:101F00002A95E9F70895CF93DF93EC010E947D0FA6
:101F1000CE01DF91CF910C94C40E85E695E00C9430
:101F2000A70E0F93FC0161834283238304830F91E7
:101F3000089525E0FC0111922A95E9F70895FC0126
:101F40002081622B608308956095FC0120816223CB
:101F500060830895CF93DF93EC010E94791225E00E
:101F600030E0AE0161E0DF91CF910C9423120F932A
:101F70001F93CF93DF93EC018C010B5F1F4F45E064
:101F800050E0BC01C8010E94A12A892B49F445E018
:101F900050E067EA75E0CE010E94A12A892B51F03A
:101FA000CE010E94AA0F95E0FE01D80101900D928A
:101FB0009A95E1F7DF91CF911F910F910895CF93FB
:101FC000DF93EC010E94990FCE01DF91CF910C9429
:101FD000B70FCF93DF93EC018091BC05811113C043
:101FE0001092AD051092AC058FE094E09093AF0590
:101FF0008093AE058AE390E09093B1058093B0059D
:1020000081E08093BC050E9479126CEA75E00E9421
:102010000612CE01DF91CF910C94DF0F8091CB059A
:10202000811113C01092C5051092C40589E494E093
:102030009093C7058093C60588E190E09093C90509
:102040008093C80581E08093CB050E94791264ECEF
:1020500075E00C9406120F931F93CF93DF93EB015F
:102060008A010E9479129801AE0165E0DF91CF915B
:102070001F910F910C942312CF93DF931F92CDB732
:10208000DEB7198241E050E0BE016F5F7F4F0E94D2
:102090002B100F90DF91CF9108950C943C100C946D
:1020A0003C10CF93DF931F92CDB7DEB769836338BF
:1020B00029F48DE497E00E94342A07C041E050E003
:1020C000BE016F5F7F4F0E942B100F90DF91CF9169
:1020D00008958AEC95E00C940E10CF93DF93CDB762
:1020E000DEB769970FB6F894DEBF0FBECDBFFC0117
:1020F000DB019C919F5F9C93BE016F5F7F4F89E1E5
:10210000DB011D928A95E9F729E0298384E08A831F
:1021100091E09D8383E08E832A8721E22B879C8731
:102120009D879F8722E2288B25E3298B27E02B8B35
:1021300025E02C8B8E8B20E430E0388F2F8B998F0D
:1021400082818B83838180688D8B49E150E080E0C0
:102150000E94E32769960FB6F894DEBF0FBECDBF8D
:10216000DF91CF910895FC01838180640C94332723
:102170000A970C94B310DC01FB0112968C91129714
:1021800090E02481358182179307D1F49181808179
:10219000813A31F481E0913091F0933089F411C0AB
:1021A000813271F49B3021F4828152968C9305C068
:1021B0009A3031F4828153968C9381E0089508958A
:1021C00080E00895FB0120812138B9F42381223277
:1021D000A1F4DC0112962C91129730E044815581D4
:1021E0004217530751F421E052962C9345E350E0F7
:1021F00061E674E080E80C94E32780E090E00895C5
:10220000CF93DF93EC0181E08C838D839E012F5E61
:102210003F4F3F832E83198618861D861C861F8696
:102220001E86188A25E931E03983288323EA31E0C4
:102230003B872A878A8B8B8B81EC898B0E949E251A
:10224000BE01DF91CF910C94572583ED95E00C945E
:102250000011FB018BE6808382E6818389E682831D
:102260008FE6838380E3848381E3858386E008951A
:10227000CF93DF93CDB7DEB769970FB6F894DEBF83
:102280000FBECDBFFC01DB018C918F5F8C93BE0133
:102290006F5F7F4F89E1DB011D928A95E9F729E0A5
:1022A000298384E08A8391E09D8383E08E832A875B
:1022B00021E22B879C879D879F8722E2288B27E03E
:1022C0002B8B25E02C8B8E8B20E430E0388F2F8BEE
:1022D000998F82818B8395858685998B8A8B838163
:1022E00080688D8B49E150E080E00E94E327699689
:1022F0000FB6F894DEBF0FBECDBFDF91CF9108952A
:10230000EF92FF920F931F93CF93DF93FB012081F6
:10231000213851F52381223239F5DC0112962C91B6
:1023200030E04481558142175307F1F4EC010B85ED
:102330001C85E12CF12C0115110591F0F801448167
:1023400055816281738180E80E94E3278F3FFFEF10
:102350009F0769F0E80EF91ED8010D911C91EBCF93
:1023600081E08F87C70105C080E090E002C08FEF59
:102370009FEFDF91CF911F910F91FF90EF90089504
:10238000CF93DF93FC01DB01828190E014962D91C5
:102390003C91159782179307A9F511969C91119777
:1023A0008C91813A31F481E0913069F1933051F5AB
:1023B0002AC0813239F59B3021F412968C9187879F
:1023C00005C09A3029F412968C91808B81E01BC055
:1023D0009930C1F4EF0116968D919C911797823038
:1023E000910539F462E070E0CF0141960E940A281D
:1023F00009C0019739F461E070E0CF0142960E9474
:102400000A28198A80E0DF91CF910895FC01A38505
:10241000B485109719F47487638709C08D919C91D6
:102420001197009711F0DC01F9CF6D937C9325850E
:102430003685DB0114968D919C911597820F931F21
:10244000968785870895AF92BF92CF92DF92EF92E1
:10245000FF920F931F93CF93DF931F92CDB7DEB7F9
:102460007C0169836A01590141E050E0BE016F5F60
:102470007F4FFC0183810E9433278C0197FD0BC0A5
:10248000F7018381A501B60180640E94332797FD7F
:1024900002C0800F911F0F90DF91CF911F910F917C
:1024A000FF90EF90DF90CF90BF90AF900895CF93C3
:1024B000DF93EC0181E08C838D839E01265F3F4F8B
:1024C0003F832E831986188629EA31E039832883D1
:1024D0001C861B861E861D868F87888B198A1A8A02
:1024E00081EC8A870E949E25BE01DF91CF910C94DA
:1024F00057258091FA05811107C087EE95E00E946B
:10250000571281E08093FA0587EE95E008950895CB
:102510000E9477148CE494E10E945C0486E793E1C6
:102520000C9486040F931F93CF93C82F0E9405230A
:1025300000910406109105062091060630910706C9
:10254000601771078207930798F10E940523209175
:10255000050130910601DC01CB01820F931FA11D03
:10256000B11D8093040690930506A0930606B093D0
:102570000706C0FF04C020E04091070112C0C1FF60
:1025800005C040910701419520E00BC0C2FF04C087
:1025900020910701219504C0C3FF0AC020910701C3
:1025A00040E060E080E0CF911F910F910C944B0AC6
:1025B000CF911F910F9108950E947E0A0E947A0A7E
:1025C0001092100680E090E008950F931F93809181
:1025D0001006811113C01092130610920806109273
:1025E000090610920A0610920B0610920C06109221
:1025F0000D0610920E0610920F0673C00E9405235E
:10260000009108061091090620910A0630910B06E8
:10261000601771078207930708F463C00E940523BF
:1026200020910B0130910C01DC01CB01820F931F33
:10263000A11DB11D8093080690930906A0930A0678
:10264000B0930B060E94052300910C0610910D0615
:1026500020910E0630910F066017710782079307CD
:1026600020F18091130690910A01482F50E02FEF3E
:1026700030E0291B3109421753071CF4890F80935E
:1026800013060E9405232091080130910901DC0105
:10269000CB01820F931FA11DB11D80930C06909357
:1026A0000D06A0930E06B0930F068091100680FFD2
:1026B00004C060910D01619506C081FF03C0609167
:1026C0000D0101C060E082FF04C080910D01819581
:1026D00006C083FF03C080910D0101C080E00E940D
:1026E000491580E090E01F910F910895882321F013
:1026F00082E096E00C94DC1282E096E00C94E51205
:10270000EF92FF920F93CF93DF931F92CDB7DEB777
:10271000FB018181803509F07EC07B019081892F8A
:102720008072202F2270492F407496FF16C08111AD
:1027300014C0892F8F7B0170222349F0011104C03E
:1027400089830E94A31489810E947B1495C0002371
:1027500009F492C00E947D148FC0811137C00170AE
:10276000222309F45BC0011181C00E94052320913E
:102770000B0130910C01DC01CB01820F931FA11DD5
:10278000B11D8093080690930906A0930A06B093A2
:102790000B060E9405232091080130910901DC01FC
:1027A000CB01820F931FA11DB11D80930C06909346
:1027B0000D06A0930E06B0930F0610920406109219
:1027C0000506109206061092070650C0222309F44F
:1027D00053C000FD51C090FD02C030E001C032E0A6
:1027E00081E0411101C080E0232F282B91FD02C020
:1027F00030E001C034E0322B92FD02C020E001C085
:1028000028E0232B93FD02C080E001C080E1822BF1
:102810000E94A91431C080E090E037C0002361F12C
:10282000909580911006982390931006F70180816F
:10283000982F937031F020E084FD0DC040E061E0FE
:1028400011C0982F9C7049F084FD09C020E040E041
:1028500060E081E008C041E004C020E001C021E068
:1028600040E060E080E00E94560A06C0F7018081E7
:1028700084FF05C00E94921281E090E006C0909112
:102880001006892B80931006F7CF0F90DF91CF9120
:102890000F91FF90EF9008950F93CF93DF9300D0A7
:1028A000CDB7DEB79A838983022F242F462FBE012E
:1028B0006F5F7F4F82E096E00E948013892B19F4AE
:1028C00089819A8102C080E090E00F900F90DF91A3
:1028D000CF910F9108950E94771480E090E00895C1
:1028E00085EB91E0909303068093020608950E9481
:1028F000470A0C94820A0C94700A0E94750A10927E
:102900001406089556954795640F751F36952795BB
:1029100040E0820F931F0C948E0A109216061092BC
:10292000150610921806109217068FEF9FE79093E6
:102930001C0680931B0690931A068093190681E06B
:102940008093140608958091140681110C948D14BF
:1029500008950F931F93CF93C82F80911406811170
:1029600002C00E948D14C0FF06C010921406CF91C1
:102970001F910F910895A0910F010A2F10E08091EF
:102980001B0690911C06B8010E94652A9B0170935A
:102990001C0660931B068091190690911A06B801D7
:1029A0000E94652AAB0170931A06609319069C2F4A
:1029B0009470E0911506F0911606A0911706B0915B
:1029C00018068C2F8670863071F4C9018E0F9F1FF8
:1029D00090931606809315066A0F7B1F7093180656
:1029E0006093170634C0992361F0C8010197849F52
:1029F000B001859F700D949F700D1124A60FB71F15
:102A000004C0C1FD06C0A60FB71FB0931806A0935F
:102A10001706C4FF0CC0D8011197A29FC001A39F45
:102A2000900DB29F900D1124E80FF91F04C0C3FD53
:102A300006C0E20FF31FF0931606E09315066091AF
:102A40001706709118068091150690911606CF9181
:102A50001F910F910C948214889F90011124232FB1
:102A60003327829FA001839F500D1124452F5527A6
:102A7000440F551FC901880F991F820F931F01969C
:102A8000841B950B8F3F910519F010F08FEF90E0AC
:102A900008950F931F93CF93DF93182FC62F88238A
:102AA000F1F0809113060E942C1520911206382F08
:102AB0001303C0011124820F911D27FD9A950091E7
:102AC0000E0110E00817190764F022273327201B96
:102AD000310B8C018217930724F4890102C000E0B6
:102AE00010E0CC23F9F0809113060E942C15209160
:102AF0001106482F3C2F3403C0011124820F911D71
:102B000027FD9A95C0910E01D0E0C817D90764F04F
:102B1000222733272C1B3D0BEC018217930724F44B
:102B2000E90102C0C0E0D0E010921406BE0184E0CA
:102B3000759567958A95E1F7C80124E09595879585
:102B40002A95E1F720E040E00E944B0A0F700093C5
:102B50001206CF70C0931106DF91CF911F910F9194
:102B600008958BEC96E10E945C0482E297E10C945C
:102B70008604262F20684FEF6FEF0E9494040E9476
:102B80001E0A0C947E0A0F931F93CF93DF931F921C
:102B9000CDB7DEB7162FFC01049141FF06C062E0FD
:102BA000C80149830E94B915498140FF04C061E012
:102BB000C8010E94B9150F90DF91CF911F910F911D
:102BC00008951F93CF93DF93EB01209709F442C040
:102BD00010E0CE010196FE01449150E0FA013197D8
:102BE000E830F10508F036C0EA5AFF4F9E012E5F2B
:102BF0003F4F0C949B2AE901FC01149124C0E90188
:102C0000FC01649170E080E090E00E9436231BC0DC
:102C1000FC016491239642E009C0FC016491239673
:102C200041E004C0FC016491239643E0C90109C05E
:102C3000E90142E005C0E90141E002C0E90143E0E9
:102C400060E00E94C315612F70E080E090E00E9478
:102C50003623BFCFDF91CF911F91089580E090E0A0
:102C60006134B8F46A3360F5603229F148F46A30AF
:102C7000F1F018F46830C8F408956B31D1F008957C
:102C80006133D8F4E62FF0E0EE0FFF1FEC5AFB4F54
:102C90002DC0613628F46B35D0F498E083EC0EC07B
:102CA0006B37E0F06F37E0F0089582E207C088E20A
:102CB000089589E208958CE208958DEE860F0895B7
:102CC000E62FF0E0EE0FFF1FEE5BFB4F0FC0E62F8D
:102CD000F0E0EE0FFF1FE25FFB4F08C083EAEECF8C
:102CE000E62FF0E0EE0FFF1FE652FC4F8591949126
:102CF0000895CF92DF92EF92FF920F931F93CF939D
:102D0000DF936C018B01F80164916623A1F0C60189
:102D10000E942E16EC01E12CF12C8E159F0519F462
:102D20000F5F1F4FF0CF62E00E94B91561E0CE0146
:102D30000E94B915F5CF80E090E0DF91CF911F910F
:102D40000F91FF90EF90DF90CF9008950F93FB01CC
:102D500081818036C9F49081809121068830B8F451
:102D6000E82FF0E0BF01660F771FE60FF71FEE5D5B
:102D7000F94F908390E1499F200D11242183028314
:102D80008F5F8093210603C080E090E002C081E065
:102D900090E00F9108950F93CF93DF9300D0CDB7BC
:102DA000DEB79A838983022F242F462FBE016F5FDF
:102DB0007F4F8DE196E00E94A616892B19F4898138
:102DC0009A8102C080E090E00F900F90DF91CF9148
:102DD0000F9108951092210680E090E00895CF931E
:102DE000C0E080912106C81748F58C2F90E0FC01C7
:102DF000EE0FFF1FDF01A80FB91FAE5DB94F11968F
:102E00002C912F3F19F42093200606C0322F3295C3
:102E10003F70309320062F7020931F068E0F9F1F48
:102E2000FC01EE5DF94F628180810E94E802BC01E5
:102E30008DE196E00E94E115CF5FD3CF80E090E076
:102E4000CF910895882319F01092210608958DE1FD
:102E500096E00C94EF168BEB91E090931E06809316
:102E60001D060895089508950895089521EC31E010
:102E7000DC012D933C9310923F0680E3E0E4F6E002
:102E8000DF011D928A95E9F7089580913F06089524
:102E9000E0E4F6E020E030E041915191452B49F427
:102EA000F901EE0FFF1FE05CF94F91838083822FC1
:102EB00008952F5F3F4F2831310571F78FEF089547
:102EC000CF93DF93EC010E944817E881F9810280DB
:102ED000F381E02DCE01099580E090E0DF91CF9164
:102EE00008950C9460179A01462F682F81E194E0B1
:102EF0000C942507CF92DF92EF92CF936B01E82ECF
:102F0000C0E06E2DA6018C2F0E947317CF5FC034D6
:102F1000C1F7CF91EF90DF90CF90089560E070E01F
:102F200080E00E947A17E0913F06F0E0EE0FFF1F6D
:102F3000E05CF94F80819181009739F0DC01ED91DF
:102F4000FC910480F581E02D09940895883140F4C6
:102F500080933F0680913C06811102C00C948E172D
:102F6000089580913F068F5F80933F06883150F42B
:102F7000E82FF0E0EE0FFF1FE05CF94F2081318178
:102F8000232B41F410923F0680913C06811104C02E
:102F90000C948E170C94A617089580913F0681110A
:102FA00010C087E1E82FF0E0EE0FFF1FE05CF94F63
:102FB00020813181232B31F48150A1F710923F06FB
:102FC00003C0815080933F0680913F060C94A61762
:102FD0009C01E0E4F6E080E04191519142175307F3
:102FE00011F40C94A6178F5F8831B1F708950C94F3
:102FF000E817762F642F0E947A1708950F931F9376
:103000008901242F462F682F81E194E00E946E07EA
:103010001F910F91089581E194E00C948007CF9364
:10302000DF9360E070E080E00E947A17C0E4D6E0B1
:1030300089919991009739F0DC01ED91FC91028022
:10304000F381E02D0995B6E0C037DB0789F70E94D0
:1030500005232091100130911101620F731F7093AD
:103060003E0660933D0680E090E0DF91CF910895A9
:103070008AE396E00E940F1886E698E10E945C04BD
:103080008DEB98E10C9486040F93FB0181818334CE
:10309000C9F401FF0CC000FD0AC0FB012081318191
:1030A00080E093E42817390729F40E94B11781E0E2
:1030B00090E00AC081E093E428173907C1F70E9425
:1030C000CD17F5CF80E090E00F9108950F93CF9347
:1030D000DF9300D0CDB7DEB79A838983022F242FE8
:1030E000462FBE016F5F7F4F8AE396E00E9444182F
:1030F000892B19F489819A8102C080E090E00F90B9
:103100000F90DF91CF910F91089580913C0681112E
:1031100031C00E94052320913D0630913E06621B7E
:10312000730B80911001909111018617970780F41D
:103130000E940B1820913D0630913E0680911001AF
:1031400090911101820F931F90933E0680933D064C
:10315000E0913F06F0E0EE0FFF1FE05CF94F808149
:103160009181009739F0DC01ED91FC910680F781A7
:10317000E02D099580E090E00895811104C08AE374
:1031800096E00C94851808958AE396E00C9436171F
:1031900060E070E080E00E947A170895862F642F27
:1031A00020E030E040E00E94FE17089587EC91E0B7
:1031B000909371068093700608950F931F93CF9399
:1031C000DF936115710521F4642F742F842F61C082
:1031D00026E0289FD001299FB00D11248B2F99271D
:1031E000AE7FBB27EFEFF0E0EF01C61BD70BC49F0C
:1031F0009001C59F300DD49F300D1124A69FE00192
:10320000A79FD00DB69FD00D1124CD2FDD278F01A4
:103210000C1B1D0B049FE001059FD00D149FD00DCA
:1032200011248F010A1B1B0B069FD001079FB00DB5
:10323000169FB00D11246B2F7727E61BF70BE49F29
:10324000D001E59FB00DF49FB00D1124823091059F
:10325000A1F038F4009769F00197B1F49D2F742F15
:103260000AC08330910569F0049771F49B2F732F86
:103270000EC0942F7B2F432F0AC0932F742F4B2FF8
:1032800006C0932F7D2F03C0942F732F4D2F642FD3
:10329000892FDF91CF911F910F910895CF93DF93E5
:1032A000C82FD62F0E940523F4E076956795FA95EE
:1032B000E1F7962F67FD9095990F999FB001112422
:1032C000672F7727AB01440F551F460F571F969F57
:1032D0009001979F300D1124232F3327220F331F86
:1032E000421B530B56954795405B50E06D2F70E0A5
:1032F0008C2F90E00E94DD18DF91CF910895CF933D
:10330000C82F0E940F0A81708C1721F083E590E08E
:103310000E947B09CF9108950E940F0A81708093CB
:10332000740680E090E008950E948C1981E69AE18D
:103330000C9486048F929F92AF92BF92CF92DF92AD
:10334000EF92FF920F931F93CF93DF9380917506B7
:103350000E949405D82F811124C00E940F0AC82F03
:10336000C17080911601882311F08C2F17C00E9424
:1033700045170E94A61780E00E947F1981E0809384
:103380001601CC2341F080917406811106C083E5BB
:1033900090E00E947B0980E001C081E08093740688
:1033A00081C01092160181E00E947F190E9445178A
:1033B0000E94A6179BE4E92E93E0F92EC0E000E0FE
:1033C00010E0B02EE0910101F0910201402F6C2F2E
:1033D000D701A00FB11F8C910995882EA92E992E87
:1033E000E0910101F0910201402F6C2F8091750650
:1033F0000995282D3A2D4091750654E42417350778
:1034000021F4C0931801009317012817390739F4E4
:10341000C12CD12C2C153D05B9F09920B9F0E091C3
:103420003F06F0E0EE0FFF1FE05CF94F80819181D5
:103430000097B1F0DC01ED91FC910084F185E02D65
:103440004B2D6C2F09950CC0D111E9CF20911301A0
:1034500030911401409115016B2D8C2F0E94FE17A5
:103460000F5F1F4F0031110509F0ABCFCF5FB0E107
:10347000EB0EF11CC43009F0A2CF80911801853009
:1034800088F480911701813168F46FEF8091120107
:103490000E944E199B01482F6091170180911801DD
:1034A0000E94FE1780E090E0DF91CF911F910F9175
:1034B000FF90EF90DF90CF90BF90AF909F908F9054
:1034C0000895882321F082E796E00C949A190895D4
:1034D00085ED91E0909373068093720608958EE0D7
:1034E0009BE10C948604EF92FF920F931F93CF936E
:1034F000DF938BE4E82E83E0F82E10E0C0E0D0E00C
:103500000C2FE0910101F09102014C2F612FD701A6
:10351000AC0FBD1F8C91099540911C0150911D016C
:1035200020911F018417950739F42F3F29F4109338
:103530007B0600937A0617C02F3F41F080911E0151
:103540008F3F21F0211302C0801789F32196C031EB
:10355000D105B1F61F5F80E1E80EF11C143071F661
:1035600081E080937C06DF91CF911F910F91FF90B6
:10357000EF90089580917C0681114DC0809178066E
:1035800090917906892B49F40E940523709379065E
:10359000609378060E94731A3EC00E940523209112
:1035A000780630917906AB01BC01421B530B6109CF
:1035B00071098091190190911A01A0E0B0E084177F
:1035C0009507A607B707D0F481E080937C06409169
:1035D0007A0660917B06E0913F06F0E0EE0FFF1F58
:1035E000E05CF94F808191810097A9F0DC01ED91B9
:1035F000FC910084F185E02D09950DC06FEF80915D
:103600001B010E944E199B01482F60917A06809100
:103610007B060E94FE1780E090E00895882321F049
:1036200086E796E00C94BA1A08958BED91E090939A
:10363000770680937606089583EA9CE10C948604CD
:10364000CF93C8E081E194E00E94A707C150D1F771
:1036500081E194E00E94A70767E381E194E00E9482
:10366000D6088823A9F381E194E00E94DD08813027
:1036700079F78091190490911A04A0911B04B091DC
:103680001C04892B8A2B8B2B19F7CF9108950E944C
:103690007A170E940B180C94201B8F929F92AF9266
:1036A000BF92EF920F931F93FC01922F802F28E07F
:1036B000929F800D1124DB018D909D90AD90BC9068
:1036C000082E04C0B694A794979487940A94D2F7CE
:1036D000282D2170822E880CDA014D915D916D911B
:1036E0007C91082E04C076956795579547950A9466
:1036F000D2F74170282D242BDF01A80FB11D3C917A
:103700002130E1F43E31C0F441E050E060E070E08F
:10371000082E04C0440F551F661F771F0A94D2F766
:1037200080A091A0A2A0B3A0482959296A297B2989
:1037300040A351A362A373A31C920BC03F3110F4AA
:103740003F5F3C93233029F44E2D401B00E019ECE1
:1037500019C040A151A162A173A104C076956795DB
:10376000579547958A95D2F740FF06C04E2D401BCE
:1037700000E010E029EC07C0223051F44E2D401B30
:1037800009EC10E020E0692F81E194E00E946E07CF
:103790001F910F91EF90BF90AF909F908F900895E1
:1037A000AF92BF92CF92DF92EF92FF920F931F934F
:1037B000CF93DF93CDB7DEB7C854D1090FB6F894D5
:1037C000DEBF0FBECDBF84E26E0125E2C20ED11C6A
:1037D000F601282F11922A95E9F7FE0131965F0133
:1037E00011928A95E9F740E060E088EC0E94F917B1
:1037F00081E194E00E94A70761E081E194E00E94EA
:10380000D6088823A1F067E081E194E00E94D60801
:10381000882369F067E381E194E00E94D608882359
:1038200031F081E194E00E94DD08833009F110E07D
:10383000F12C87E0E82E0F2D212F41E154E069E1C2
:1038400074E0C6010E944D1B9FE0E92E212F45E147
:1038500054E06DE174E0C5010E944D1BF394F8E063
:10386000FF12E7CF1F5F143019F70E940B18C0CF6B
:10387000C85BDF4F0FB6F894DEBF0FBECDBFDF9140
:10388000CF911F910F91FF90EF90DF90CF90BF905D
:10389000AF9008955D9A289A089581EE91E09093F3
:1038A0007E0680937D060895CF93DF9360E070E0FD
:1038B00089EC0E94471B60E079EC80E00E94471B86
:1038C00069EC70E080E00E94471B60EA70EA80EAE1
:1038D0000E94471BC8EED3E08CED96E00E9429229F
:1038E0000E940B182197C1F7DF91CF910C94201BF8
:1038F0000E944A1C62E081E194E00E94A3080E94B9
:10390000541C0C94D01B61E081E194E00E94D60825
:103910008823B1F067E081E194E00E94D608882313
:1039200079F067E381E194E00E94D608882341F0B2
:1039300081E194E00E94DD08833011F40E94781C3C
:1039400080E090E00895811104C08DE796E00C942A
:10395000831C089583ED9CE10C948604909152079A
:103960008091200190FF0FC081111AC080918106C3
:10397000811106C081E08093810680E090E00EC056
:1039800081E090E00BC081111092200180918106AE
:10399000882331F01092810682E090E00E943F037C
:1039A00080E090E00895811104C08FE796E00C94C8
:1039B000AE1C089587EE91E09093800680937F0679
:1039C000089583E69DE10C948604AF92BF92CF9256
:1039D000DF92EF92FF920F931F93CF93DF93F12C1F
:1039E000E0904401FE1408F061C0CF2DD0E06E01DC
:1039F00083E0CC0CDD1C8A95E1F700E010E0F2E0FA
:103A0000CF0ED11CA02EF601E00FF11FE251FF4FA7
:103A10006491662379F081E194E00E94D608B82E83
:103A2000882351F00F5F1F4F0530110559F725E02E
:103A3000A22E02C0BB24B39481E194E00E94DD0871
:103A4000A81232C0BB2081F10E9405230091840698
:103A500010918506209186063091870660177107C0
:103A60008207930708F1FE0193E0EE0FFF1F9A957E
:103A7000E1F7E251FF4F259134918F2DF90109951E
:103A80000E9405232091210130912201DC01CB010C
:103A9000820F931FA11DB11D80938406909385060C
:103AA000A0938606B0938706F3949CCF80E090E0C5
:103AB000DF91CF911F910F91FF90EF90DF90CF900A
:103AC000BF90AF900895811104C082E896E00C94F5
:103AD000E51C08958DEE91E0909383068093820615
:103AE0000895CF93DF931F92CDB7DEB782E295E0C2
:103AF0000E947C0D61E0811160E081E194E06983C6
:103B00000E94AF08698160932C0582E295E00E94D3
:103B10007F0D68EE73E080E090E00E94362381E143
:103B200094E00F90DF91CF910C94B50883EF91E072
:103B3000909389068093880608958AEA9FE10E94FF
:103B40005C048CE890E20C948604E82F883018F42A
:103B500090E080EE02C094E482E28E0FF0E0E45741
:103B6000F94FE0814E2F4F70262F2068F0E0E41BC4
:103B7000F109F7FD3F96BF0134E0759567953A95D9
:103B8000E1F70E949404089562E00C94A51D41E0C1
:103B900050E060E070E0082E04C0440F551F661F1F
:103BA000771F0A94D2F7409550952091A506309141
:103BB000A606422353235093A6064093A50661E030
:103BC0000C94A51D8F929F92AF92BF92CF92DF92DD
:103BD000EF92FF920F931F93CF93DF93FB018081AE
:103BE0009181CFEFC80F07FD9EC1D22F142F7B010B
:103BF0002091A5063091A606232B09F068C08150BC
:103C0000904C409708F08FC1802F8270902F917058
:103C100000FF24C0811122C081E090E0A0E0B0E06C
:103C200004C0880F991FAA1FBB1FCA95D2F78095A1
:103C300090952091A1063091A20682239323909320
:103C4000A2068093A106808191818950904C0897AB
:103C500008F059C181E080939C0655C1882309F47E
:103C600052C1911150C10E9405236093A706709321
:103C7000A8068093A9069093AA06EC2FF0E0E457DB
:103C8000F94F20E1129FD00D1124D08381E090E004
:103C9000A0E0B0E00C2E04C0880F991FAA1FBB1F24
:103CA0000A94D2F72091A1063091A206282B392B35
:103CB0003093A2062093A1062091A5063091A60676
:103CC000822B932B9093A6068093A506BCC0402F11
:103CD0004270202F237009F426C19C012150304CE2
:103CE0002031310508F0BAC001702091A30630914F
:103CF000A406CC2ED12CB9010C2E02C07695679566
:103D00000A94E2F760FF1EC0442309F4FCC00111CD
:103D1000FAC09093A00680939F0681E090E0A0E017
:103D2000B0E00C2E04C0880F991FAA1FBB1F0A9475
:103D3000D2F780959095822393239093A406809345
:103D4000A30638C00023E1F14111DDC081E090E01D
:103D5000A0E0B0E00C2E04C0880F991FAA1FBB1F63
:103D60000A94D2F7809590952091A1063091A206F1
:103D7000822393239093A2068093A1060E94052399
:103D80000091A7061091A8062091A9063091AA06D5
:103D9000AB01BC01401B510B620B730B80912701DF
:103DA00090912801A0E0B0E0481759076A077B0707
:103DB00008F4A9C08C2F0E94C71D10929E06A3C0B4
:103DC000442309F4A0C0812C912C540183940C2E1F
:103DD00004C0880C991CAA1CBB1C0A94D2F78091C1
:103DE000A1069091A206882999299093A206809312
:103DF000A1068081918120919F063091A0068217B3
:103E0000930729F48130F0EC9F0708F03EC00E9430
:103E100005236093A7067093A8068093A906909344
:103E2000AA06F601E457F94F20E1129FD00D1124A4
:103E3000D0838091A5069091A606882A992A90920F
:103E4000A6068092A506F701808191819093A00635
:103E500080939F068C2F0E94C41D55C0442309F4F3
:103E600062C09093A00680939F06FB0180819181A0
:103E7000803E910530F4F7018181843409F046C019
:103E800052C0883E9105B8F74EC0893020EC9207A9
:103E900008F04CC080912401882309F4B8CF0E9417
:103EA00005230091A7061091A8062091A90630913C
:103EB000AA06AB01BC01401B510B620B730B809136
:103EC0002501909126018F3FFFEF9F0721F48091FC
:103ED000290190912A01A0E0B0E084179507A60778
:103EE000B70788F08091A3069091A406882A992AA2
:103EF0009092A4068092A306F7018081918190930D
:103F0000A00680939F0681E090E017C080919C06F8
:103F1000882331F04D2F612F81E194E00E94420807
:103F200081E080939E0680E090E007C08131904C54
:103F300008F06DCF80912301AFCFDF91CF911F911A
:103F40000F91FF90EF90DF90CF90BF90AF909F9038
:103F50008F9008950F93CF93DF9300D0CDB7DEB746
:103F60009A838983022F242F462FBE016F5F7F4FD4
:103F70008AE896E00E94E21D892B19F489819A81D2
:103F800002C080E090E00F900F90DF91CF910F91F1
:103F90000895CF93DF938091A5069091A606892B73
:103FA000A9F0C0E0D0E08091A5069091A6060C2E65
:103FB00002C0969587950A94E2F780FF03C08C2F84
:103FC0000E94C41D2196C830D10569F780E090E0B9
:103FD000DF91CF910895CF92DF92EF92FF920F93EE
:103FE0001F93CF93DF938091A5069091A606892B0E
:103FF00009F487C00E9405230091A7061091A80626
:104000002091A9063091AA06AB01BC01401B510BBF
:10401000620B730B8091290190912A01A0E0B0E01E
:10402000481759076A077B0728F081E080939E06AE
:1040300010929D06C0E0D0E080E0C12CD12C76012A
:10404000C39420919E06222309F44EC02091A3061A
:104050003091A406A9010C2E02C0569547950A94EA
:10406000E2F740FF25C040919D064423E9F1B701E6
:10407000A6010C2E04C0440F551F661F771F0A941B
:10408000D2F78A0100951095202331233093A4069E
:104090002093A3068C2F0E94C71D8091A1069091AA
:1040A000A206802391239093A2068093A1061BC0B1
:1040B0002091A5063091A6060C2E02C036952795B4
:1040C0000A94E2F720FF10C02091A1063091A206C9
:1040D0000C2E02C0369527950A94E2F720FD04C005
:1040E0008C2F0E94C71D81E02196C032D10509F0B6
:1040F000A8CF882331F010929E0610929D06109250
:104100009C0680E090E0DF91CF911F910F91FF908E
:10411000EF90DF90CF900895882321F08AE896E011
:104120000C94EB1F8AE896E00C94C91F0F931F9321
:10413000CF93CFEFC80F8091A5069091A6060C2EC5
:1041400002C0969587950A94E2F780FD0DC0809194
:10415000A1069091A2060C2E02C0969587950A940E
:10416000E2F780FF1EC01BC00E9405230091A70636
:104170001091A8062091A9063091AA06AB01BC01B6
:10418000401B510B620B730B8091290190912A0106
:10419000A0E0B0E0481759076A077B07C0F681E046
:1041A0000AC08091A3069091A40602C096958795B7
:1041B000CA95E2F78170CF911F910F9108952FEF6B
:1041C000280F8091A3069091A40602C0969587952A
:1041D0002A95E2F78170089589EF91E090938B061C
:1041E00080938A06089587E991E20C948604462F0D
:1041F000E0913F06F0E0EE0FFF1FE05CF94FA08179
:10420000B181109749F0ED91FC9111970084F185EF
:10421000E02D682FCD01099408958F929F92AF925F
:10422000BF92CF92DF92EF92FF920F931F93CF93A3
:10423000DF935BE4C52E53E0D52EC0E000E010E034
:10424000E02EE0910101F0910201402F6C2FD60188
:10425000A00FB11F8C910995D82FF92E292FAC01F1
:104260004150504C4031510580F40E94DF2088239A
:1042700039F020912B0130912C0140912D011DC06E
:104280008D2F9F2D0E94962010C040EE842E912CE1
:1042900088159905B8F137EEA32EB12CA816B906EA
:1042A00088F18D2F9F2D0E94F309882359F02091CA
:1042B0002E0130912F0140913001602F8C2F0E94F0
:1042C000FE1704C0602F8C2F0E94F7200F5F1F4F36
:1042D0000031110509F0B4CFCF5F80E1C80ED11CC9
:1042E000C43009F0ABCF80E090E0DF91CF911F9117
:1042F0000F91FF90EF90DF90CF90BF90AF909F9085
:104300008F900895243411F78D2FDA3210F086ED56
:104310008D0F0E949405882341F020912E01309149
:104320002F01409130016E2DC9CF6E2DCCCF811160
:1043300004C08BEA96E00C940D2108958FEF91E074
:104340009093AC068093AB06089582E292E20C94BF
:10435000860485E092E09093AE068093AD060895C2
:1043600080EF96E00E94F723892B09F4089580EFEF
:1043700096E00E94DE230A9729F080EF96E00E94E3
:104380000724F5CF0895EF92FF920F931F93CF93D9
:10439000DF9380EF96E00E94F723892B09F449C050
:1043A00001EB16E0C0E0CF5F80EF96E00E940724AB
:1043B0007801F801808380EF96E00E94DE230A975F
:1043C00041F00F5F1F4FF7018081803211F0C03242
:1043D00051F78C2F90E0FC01E055F94F20812032FD
:1043E00019F0FC01EF54F94F1082C091AF06D09143
:1043F000B006209739F0E881F98181EB96E00995C4
:10440000882399F068ED74E080EF96E00E94EF2534
:104410000E94B02180EF96E00E94DE230A9749F4C3
:1044200080EF96E00E94072404C00C80DD81C02D3F
:10443000E0CF80E090E0DF91CF911F910F91FF904E
:10444000EF900895811104C08DEA96E00C94C32189
:104450000895CF93DF93EC010E9405232D813E81C7
:10446000AB01421B530B2F81388542175307E0F0F5
:104470007E836D834A8550E0698570E08A819B81E7
:104480000E94DD189B01482F5C818A819B81850FEA
:10449000911D8F3F910510F08F5F91099B838A8357
:1044A000842FB9010E947A17DF91CF9108951F934D
:1044B000CF93DF93EC010E9405232D813E81AB0158
:1044C000421B530B2F8138854217530760F17E83BF
:1044D0006D8310E08A819B81212F2695269530E1FE
:1044E000239F800D911D11248F3F910510F08F5F48
:1044F00091094A8550E0698570E00E94DD18AB01A2
:10450000682F812F0E9473171F5F103419F72C81B9
:104510008A819B81820F911D8F3F910510F08F5FE3
:1045200091099B838A83DF91CF911F910895ECEDD0
:10453000F6E08BE092E0918380831382128241E067
:1045400044831682158228E230E0308727839FEF6C
:10455000918782E38287E1EDF6E069E172E07183A1
:1045600060831382128244831682158230872783E8
:104570009187828708951F920F920FB60F92112490
:104580002F933F938F939F93AF93BF938091E806B0
:104590009091E906A091EA06B091EB063091E7060A
:1045A00023E0230F2D3720F40196A11DB11D05C076
:1045B00026E8230F0296A11DB11D2093E7068093E4
:1045C000E8069093E906A093EA06B093EB06809183
:1045D000EC069091ED06A091EE06B091EF060196E3
:1045E000A11DB11D8093EC069093ED06A093EE06FD
:1045F000B093EF06BF91AF919F918F913F912F9113
:104600000F900FBE0F901F9018952FB7F8946091E0
:10461000E8067091E9068091EA069091EB062FBFBB
:1046200008953FB7F8948091EC069091ED06A09123
:10463000EE06B091EF0626B5A89B05C02F3F19F0F6
:104640000196A11DB11D3FBFBA2FA92F982F882712
:10465000820F911DA11DB11DBC01CD0142E0660F6D
:10466000771F881F991F4A95D1F708958F929F92BF
:10467000AF92BF92CF92DF92EF92FF926B017C01DB
:104680000E9411234B015C01C114D104E104F10427
:1046900001F10E94642A0E941123DC01CB018819D8
:1046A0009909AA09BB09883E9340A105B10560F3A9
:1046B00021E0C21AD108E108F10888EE880E83E0F3
:1046C000981EA11CB11CC114D104E104F10419F716
:1046D000DBCFFF90EF90DF90CF90BF90AF909F9097
:1046E0008F900895789484B5826084BD84B581608C
:1046F00084BD85B5826085BD85B5816085BDEEE6EA
:10470000F0E0808181608083E1E8F0E010828081C8
:1047100082608083808181608083E0E8F0E0808136
:1047200081608083E1E9F0E0808182608083808124
:1047300081608083E0E9F0E0808181608083E1EC4A
:10474000F0E08081846080838081826080838081CA
:1047500081608083E3ECF0E0808181608083E0EC25
:10476000F0E0808182608083E2ECF0E08081816013
:104770008083EAE7F0E080818460808380818260CA
:1047800080838081816080838081806880830895B8
:10479000CF93DF931F92CDB7DEB76983DC01ED9134
:1047A000FC910280F381E02D41E050E0BE016F5F9B
:1047B0007F4F09950F90DF91CF910895CF93DF93AD
:1047C000EC018C859D8597FF05C082E00E94022741
:1047D0009D878C878C859D85DF91CF91089583E09F
:1047E0000E94192790E0089583E00C949529FC011C
:1047F0008485958597FD06C082E00E94AD2690E0F5
:104800000196089582E00E94AD2690E00895FC0193
:104810008485958597FD05C02FEF3FEF3587248769
:10482000089582E00C940227CF93DF93EC018091EE
:104830003C01882331F083E00E94332718161906C3
:1048400034F081E090E09B838A8380E090E0DF9108
:10485000CF910895FC0190819E5F908342E450E0E7
:104860006AED74E080E80C94E327FC01818190817B
:10487000913A59F4813209F048C047E050E065E3CD
:1048800071E080E00E94E32776C09132F1F5833237
:1048900091F49381892F90E0982F88272281822B91
:1048A000A0E0B0E08093310190933201A0933301F6
:1048B000B093340160C0803239F467E070E085E382
:1048C00091E00E940A2806C0823209F054C0828119
:1048D00080933C0180914007882319F0EEEFFAE0C5
:1048E00002C0E0E0F8E08091350190913601A0919E
:1048F0003701B0913801803B9440A105B10539F4EE
:1049000080913C0180FF1FC002C080E008950FB677
:10491000F894A8958091600088618093600010925F
:1049200060000FBEA895EE3F8AE0F80739F080914D
:10493000FE0A9091FF0A918380831DC01092FF0AA6
:104940001092FE0A18C0EE3F2AE0F20731F0808193
:1049500091819093FF0A8093FE0A87E797E79183FE
:1049600080839BE088E10FB6F894A895809360005F
:104970000FBE9093600081E00895E0EFF6E01382AF
:10498000128288EE93E0A0E0B0E084839583A68352
:10499000B78387E292E0918380838FEF9FEF9587C3
:1049A00084870895EF92FF920F931F93CF93DF9325
:1049B0007B01FC01C281D38100E010E0209781F0EF
:1049C000E881F9810280F381E02DB701CE010995DC
:1049D00097FD08C0080F191F0884D985C02DEECF98
:1049E000C80102C08FEF9FEFDF91CF911F910F9110
:1049F000FF90EF9008950F931F93CF93DF938B0158
:104A0000FC01C281D381209771F0E881F981048093
:104A1000F581E02DB801CE010995009731F40884A5
:104A2000D985C02DF0CF80E090E0DF91CF911F912C
:104A30000F9108950F931F93CF93DF938B01FC0188
:104A4000C281D381209771F0E881F9810680F781D6
:104A5000E02DB801CE010995080F111D0884D985F4
:104A6000C02DF0CFF8011082DF91CF911F910F91EF
:104A700008950F931F93CF93DF938B01FC01C281A5
:104A8000D381209771F0E881F9810190F081E02DC8
:104A9000B801CE010995811105C00884D985C02DC2
:104AA000F0CF80E0DF91CF911F910F910895CF93C8
:104AB000DF93FC01DB01218114968C91149790E027
:104AC000820F911D0897B4F5C281D381209719F404
:104AD0007383628308C088859985009711F0EC0183
:104AE000FACFB987A887808112968C93129781811B
:104AF00013968C931397908115968C911597890F27
:104B0000808380E014969C911497891788F41696F8
:104B1000CD91DC911797C80FD11D9881C181D0E04C
:104B2000C35CDE4F988391819F5F91838F5FEACF53
:104B300081E001C080E0DF91CF9108958091450729
:104B400081110DC082E08093410784E08093420789
:104B5000109244071092430781E08093450781E457
:104B600097E008956115710579F0FB01019000202F
:104B7000E9F73197AF01461B570BDC01ED91FC9132
:104B80000280F381E02D099480E090E00895EF9297
:104B9000FF920F931F93CF93DF938C017B01C0E0B3
:104BA000D0E0F701EC0FFD1F6491662361F0D8019E
:104BB000ED91FC910190F081E02DC8010995892BC0
:104BC00011F02196EECFCE01DF91CF911F910F9181
:104BD000FF90EF90089565E372E00C94B2250F9377
:104BE0001F93CF93DF93EC010E94C7258C01CE0168
:104BF0000E94EB25800F911FDF91CF911F910F91A4
:104C00000895409150075091510720914E073091DF
:104C10004F0742175307B4F49091E8009570E1F301
:104C20009091E80092FD19C08093F10080915007A7
:104C30009091510701968F739927892B19F48EEF64
:104C40008093E800809150079091510701969093CE
:104C500051078093500781E0089580E00895CF9236
:104C6000DF92EF92FF920F931F93CF93DF931F92E8
:104C7000CDB7DEB7182F062FE42E862F880F8E5F54
:104C800099830E94012683E00E940126F12EC12E05
:104C90009981D92E8C2D8F19801798F4F601E7FE93
:104CA00002C0849101C080810E940126182F80E0FB
:104CB0000E9401268123FFEFCF1ADF0A8111EACF7C
:104CC00001C081E00F90DF91CF911F910F91FF9074
:104CD000EF90DF90CF9008958091D700816080930E
:104CE000D70080EA8093D80089B5806189BD89B5F5
:104CF000826089BD09B400FEFDCF61E070E080E014
:104D000090E00E9436238091D8008F7C8061809350
:104D1000D8008091E000807F8093E0000895CF93D9
:104D2000DF931F92CDB7DEB71982CE0101960E94A4
:104D30002A240E949E25BE016F5F7F4F0E94D224CD
:104D400089810F90DF91CF9108952FB7FC012083C7
:104D5000F89467706093E9000895CF93DF931F92F2
:104D6000CDB7DEB7682FCE0101960E94A5268091AF
:104D7000F20099819FBF0F90DF91CF910895EF923C
:104D8000FF920F931F93CF93DF931F92CDB7DEB7A0
:104D900090915407992311F057FF03C08FEF9FEFB5
:104DA00029C08A017B01682FCE0101960E94A526A9
:104DB0008091F20090E0A801801791070CF4AC01FB
:104DC000842FF70194E6815030F09093550720919D
:104DD000F1002193F8CF4115510521F08091F200A7
:104DE000882321F089818FBFCA0104C08BE680939C
:104DF000E800F8CF0F90DF91CF911F910F91FF90B6
:104E0000EF900895CF93DF931F92CDB7DEB741E0C7
:104E100050E0BE016F5F7F4F0E94BF26019719F4DB
:104E2000898190E002C08FEF9FEF0F90DF91CF91CB
:104E30000895CF93DF931F92CDB7DEB7682FCE01D1
:104E400001960E94A5269091E800892F807295FF17
:104E500004C09091F20080E4891B99819FBF0F905C
:104E6000DF91CF9108955F926F927F928F929F9280
:104E7000AF92BF92CF92DF92EF92FF920F931F9368
:104E8000CF93DF931F92CDB7DEB7582E6B01B42EB0
:104E9000052F80915407811103C08FEF9FEF77C0DA
:104EA0008091520780FF05C08091E000826080936E
:104EB000E000EB2CF02EA12C8AEF982E852D80722D
:104EC000782E852D8074682E9AE3892EE114F104E2
:104ED00009F456C0852D0E941927182F81110AC088
:104EE0009A949920D1F261E070E080E090E00E9415
:104EF0003623ECCF90E0E816F9060CF41E2D652D54
:104F0000CE0101960E94A5268091E80085FF35C05C
:104F1000212F30E0E21AF30A772029F01150A8F08F
:104F20001092F100FBCFF60157FE07C0115058F068
:104F300084918093F1003196F9CF115020F0819146
:104F40008093F100FACFC20ED31EAA2019F08092EE
:104F5000E8000BC08091E80085FD09C08092E80060
:104F6000AA24A394E114F10441F0A12C06C0E11499
:104F7000F10419F461108092E80089818FBFA6CFF7
:104F8000A110A8CF84E6809356078B2D902F0F9009
:104F9000DF91CF911F910F91FF90EF90DF90CF9015
:104FA000BF90AF909F908F907F906F905F9008958B
:104FB0001092E900109251071092500790934F07FA
:104FC00080934E070895DF92EF92FF920F931F9305
:104FD000CF93DF93D82E8A017B01E40EF51EEB01FF
:104FE000CE15DF0571F0D7FE03C0FE01849101C02C
:104FF00088810E94012621968111F2CF8FEF9FEFC9
:1050000001C0C801DF91CF911F910F91FF90EF90E8
:10501000DF900895CF93DF93DC019B0184E6CBEF13
:1050200021153105F1F0A9012134310514F040E4D6
:1050300050E09091E80092FFFCCF942FFB01E21B1F
:10504000F30BEA0FFB1F915028F0D091F100D083B1
:105050003196F9CF80935507C093E800241B350B98
:10506000DFCFCB01DF91CF9108951F920F920FB642
:105070000F921124CF92DF92EF92FF920F931F9322
:105080002F933F934F935F936F937F938F939F9350
:10509000AF93BF93EF93FF93CF93DF93CDB7DEB77B
:1050A0006C97DEBFCDBF1092E9008091E80083FFCE
:1050B0001DC1FE017596FE2E0F2F88E08E0F8E17F4
:1050C00029F09091F10090833196F9CF84E6809396
:1050D000550782EF8093E8002D8927FF05C0809156
:1050E000E80080FFFCCF03C08EEF8093E800822FA2
:1050F000807609F0E0C03E894F89188D31110CC0CF
:10510000203829F4809153078093F10002C0109257
:10511000F1001092F100E3C0E42FF0E0F12B313008
:1051200049F42111DCC0319709F0D9C080915307AF
:105130008D7F0AC0333059F42111D1C0319709F065
:10514000CEC080915307826080935307C8C035302A
:1051500041F48091E80080FFFCCF40684093E30079
:10516000BEC0363009F07DC0CB8CDC8C123069F5C6
:1051700080E090E00E94D8270E948F2699E09E014F
:105180002F5F3F4F7901F901292F11922A95E9F7F5
:1051900099831A8391E09E8390EA98879AEF998782
:1051A0002091500730915107275F3F4F3C832B835D
:1051B0008D83C6010E94D82749E050E0B70180E006
:1051C0000E94E3270E948F268AC0C6010E94D8272A
:1051D0000E949E256F2D702F0E94FB24009719F0CE
:1051E0000CF07DC080C0113061F1133009F07BC03C
:1051F0008F89882349F1823029F440E868E089E307
:1052000095E006C0813039F440E86AE08EE295E02E
:105210000E942F2662C0833009F065C00E949E253F
:105220008E010F5F1F4FB8010E941A25F8010190EF
:105230000020E9F73197BF01601B710B40E0C80106
:10524000E7CF6CE175E002C062E475E061157105BD
:1052500009F449C0FB01449150E080E80E94E32733
:105260003EC0373009F43FC0383021F481E08093EC
:10527000F10035C0393099F52370A9F5EEE3F1E07E
:1052800081E021E036E39081992361F08093E90089
:105290002093EB0091919093EC003093ED008F5FA1
:1052A000873089F78EE78093EA001092EA008F89B1
:1052B0008093540714C08B8D9C8D0E94D827898DB4
:1052C000811105C08F2D902F0E94352406C00E94A9
:1052D0009E256F2D702F0E943925882321F08EEF97
:1052E0008093E80003C081E28093EB006C960FB6D8
:1052F000F894DEBF0FBECDBFDF91CF91FF91EF914C
:10530000BF91AF919F918F917F916F915F914F91DD
:105310003F912F911F910F91FF90EF90DF90CF90D1
:105320000F900FBE0F901F9018958093E900809109
:10533000F200882319F08AE38093E80008951F9211
:105340000F920FB60F9211242F933F934F935F93B9
:105350006F937F938F939F93AF93BF93CF93EF936D
:10536000FF93C091E1008091E100837F8093E10091
:10537000C3FF0FC01092E90081E08093EB00109210
:10538000EC0082E38093ED001092540788E0809354
:10539000F000C2FF15C083E00E9495298091560756
:1053A000882329F080915607815080935607809179
:1053B0005507882329F08091550781508093550720
:1053C000C4FF10C08091E2008E7E81608093E20075
:1053D0008091E1008F7E8093E100809152078E7E64
:1053E000806111C0C0FF11C08091E2008E7E80619B
:1053F0008093E2008091E1008E7E8093E1008091B5
:1054000052078E7E816080935207FF91EF91CF917A
:10541000BF91AF919F918F917F916F915F914F91CC
:105420003F912F910F900FBE0F901F9018951092E3
:10543000540710925307109252070E946C268091D5
:10544000E1008E7E8093E1008DE08093E200559A2A
:10545000209AEEEFFFE7859194918B3F9C4D19F4D4
:1054600081E08093400708958091E0008D7F8093D4
:10547000E0008091E00081FD08C08091520780FF2C
:1054800004C08091530781FD02C080E008950E940E
:105490006C268091E00082608093E00081E00895B6
:1054A00008950E9472230E94502A8DE497E00E9482
:1054B000172A0E94CD03C0E0D0E00E94E3032097AA
:1054C000E1F30E940000F9CF0895AA1BBB1B51E134
:1054D00007C0AA1FBB1FA617B70710F0A61BB70B64
:1054E000881F991F5A95A9F780959095BC01CD0109
:1054F0000895A1E21A2EAA1BBB1BFD010DC0AA1F15
:10550000BB1FEE1FFF1FA217B307E407F50720F02C
:10551000A21BB30BE40BF50B661F771F881F991FA7
:105520001A9469F760957095809590959B01AC01F0
:10553000BD01CF010895EE0FFF1F0590F491E02DFE
:105540000994FB01DC0104C08D910190801921F4C4
:1055500041505040C8F7881B990B0895DC0101C0E9
:105560006D9341505040E0F7089512E0C9EBD2E04E
:1055700004C0FE010E949B2A2196CA3BD107C9F7AD
:04558000F894FFCFCD
:10558400033B0501013200014000010100017F02DB
:105594001000AA0000A001FFFFF023AA0043FFFFB0
:1055A40001F4010101FFFFFA00C4090000FFFFFF3D
:1055B400FFFFFFFFFF00E100000000000000C180CA
:1055C400810000000103040B0C13141A1B24252B67
:1055D4002C33343B3C02050A0D1215191C23262AD0
:1055E4002D32353A3D0106090E1116181D222729C0
:1055F4002E3136393E0007080F10171F1E212028B0
:105604002F3037383F000000001A0DB30CFB0CACF0
:105614000C00000000BB106D10E210AC0CB310F6CF
:10562400FF0000B81000000000C0113811801129DB
:105634001100000000881200000000B115000000F5
:105644000038180000000071173217C8183417CE3C
:1056540018000000009419000000006F1A000000F8
:10566400001C1B00000000AA1C00000000E11C003C
:105674000000008712000000009D1D00000000F3E0
:105684002000000000A5210000000071173217332C
:1056940017292235170000000071173217331757E6
:1056A40022351700000000C8231424EF23F423F745
:1056B400230724DE230D0A006E616E00696E660006
:0456C4006F76660097
:00000001FF
